:020000040000FA
:10000000A8280020F90200000103000003030000FB
:1000100005030000070300000903000000000000C2
:100020000000000000000000000000000B030000C2
:100030000D030000000000000F030000110300008A
:100040001303000013030000130300001303000058
:100050001303000013030000130300001303000048
:100060001303000013030000130300001303000038
:100070001303000013030000130300001303000028
:100080001303000013030000130300001303000018
:100090001303000013030000130300001303000008
:1000A00013030000130300001303000013030000F8
:1000B0001303000013030000000000000000000014
:1000C00013030000130300001303000013030000D8
:1000D00013030000130300001303000013030000C8
:1000E00013030000130300001303000000000000CE
:1000F00000000000130300000000000013030000D4
:1001000000000000000000000000000000000000EF
:1001100000000000000000000000000000000000DF
:1001200000000000000000000000000000000000CF
:1001300000000000000000000000000000000000BF
:1001400000000000000000000000000000000000AF
:10015000000000000000000000000000000000009F
:10016000000000000000000000000000000000008F
:10017000000000000000000000000000000000007F
:10018000000000000000000000000000000000006F
:10019000000000000000000000000000000000005F
:1001A000000000000000000000000000000000004F
:1001B000000000000000000000000000000000003F
:1001C000000000000000000000000000000000002F
:1001D000000000000000000000000000000000001F
:1001E000000000000000000000000000000000000F
:1001F00000000000000000000000000000000000FF
:10020000DFF80CD000F0BAF800480047C30900003E
:10021000A828002030B4044654E8000F0D4644E8F6
:100220000053002BF8D1156030BC704730B4044641
:1002300054E8000F40EA010544E80053002BF7D1D1
:10024000156030BC704730B4044654E8000F00EA33
:10025000010544E80053002BF7D1156030BC70470E
:1002600030B4044654E8000F80EA010544E8005326
:10027000002BF7D1156030BC704730B4044654E809
:10028000000F00EB010544E80053002BF7D1156087
:1002900030BC704730B4044654E8000FA0EB0105B1
:1002A00044E80053002BF7D1156030BC704770B4A0
:1002B00004464FF0000054E8006F0D68AE4207BFDF
:1002C00044E80023012044E800630E60002B1CBFBB
:1002D0000020F0E770BC704730B4044654E8000FCB
:1002E00088422CBF451A054644E80053002BF5D13F
:1002F000156030BC7047000006488047064800473C
:10030000FEE7FEE7FEE7FEE7FEE7FEE7FEE7FEE7C5
:10031000FEE7FEE7350400000102000000487047D8
:100320003815000040EA01039B0703D009E008C923
:10033000121F08C0042AFAD203E011F8013B00F8AA
:10034000013B521EF9D27047D2B201E000F8012BF6
:10035000491EFBD270470022F6E710B513460A4645
:1003600004461946FFF7F0FF204610BD421C10F866
:10037000011B0029FBD1801A70470000064C074D75
:1003800006E0E06840F0010394E807009847103465
:10039000AC42F6D3FFF738FFB8150000D8150000BF
:1003A0002DE9F047074688461646C24607EB470147
:1003B0001B4800EBC109D9F8140020B1012811D065
:1003C000022826D11EE0484600F04CF90546B54209
:1003D00001D2002405E0344632465146484600F03A
:1003E00088F918E0484600F03DF90546B54201D2CB
:1003F000284600E03046044622465146484600F072
:1004000078F908E032465146484600F039F904468A
:1004100001E0002400BF00BF2046BDE8F0870000D7
:100420003806002001480249086070470090D00358
:100430006000002010B500F013FA40B100207949A7
:1004400008604FF08041C1F810017749086000F062
:1004500029FA002855D07548006875490860734826
:10046000001D0068091D0860704808300068091DFB
:1004700008606E480C300068091D08606B48103039
:100480000068091D0860694814300068091D08608B
:1004900066481830006866492031086063481C309F
:1004A0000068091D0860614820300068091D086067
:1004B0005E4824300068091D08605C4828300068E8
:1004C000091D086059482C300068091D086057480C
:1004D0003030006856494031086054483430006874
:1004E000091D0860514838300068091D08604F48F0
:1004F0003C300068091D08604C4840300068091D08
:10050000086000F0F1F910B14A484B49086000F06A
:100510005BF910B1FB204949086000F063F938B17C
:10052000474801784748006861F30300454908607F
:1005300000F066F918B14FF400704349086000F00C
:100540006DF940B14148006800F0010018B16FF04A
:1005500001003E4908603E48006840F470003C4994
:10056000086000BF00BF00BFBFF34F8F00BF00BFD8
:1005700000BF00BF00BF00BFBFF36F8F00BF00BF51
:1005800000BF3448006800F0004030B93148001D19
:10059000006800F00040002840D001202E4908608B
:1005A00000BF2E4800680028FBD0122029490860AF
:1005B00000BF2A4800680028FBD012212548001DF2
:1005C000016000BF254800680028FBD000202249B8
:1005D000086000BF214800680028FBD000BF00BFB2
:1005E00000BF00BF00BFBFF34F8F00BF00BF00BF01
:1005F00017487C38006800F4E06019490843001D82
:1006000013497C39086000BF00BF00BFBFF34F8FA4
:1006100000BF00BF00BF00BF00BFFDE7FFF702FF44
:1006200010BD00000C01004038050040040400101B
:1006300020C50040488103008C56004018F500405A
:1006400058020010E40E00404096024000040040B2
:1006500088ED00E00012001004E5014000E40140D4
:100660000000FA0510B501460A69CB689A4204D821
:100670008C68641EE41AA01801E0D41A601E10BD34
:100680002DE9F0470446894617464FF0000AE56811
:1006900000BFD4F81080A84503D9A8EB0500461E7A
:1006A00004E0A5EB0800401CA1680E1AA068401BDE
:1006B000B04201D9304601E0A068401B0646BE4268
:1006C00001D2304600E03846064661684819324695
:1006D0004946FFF727FEB244B144BF1B3544A0682A
:1006E000A84200D10025E560002FD2D15046BDE8D8
:1006F000F0872DE9F047044689461546E668A0686C
:10070000871BAF4208D9616888192A464946FFF716
:1007100009FE7019E06010E0B84661688819424629
:100720004946FFF7FFFDA5EB070809EB0701424625
:100730006068FFF7F7FDC4F80C80BDE8F08702E0C1
:1007400008C8121F08C1002AFAD17047704700205C
:1007500001E001C1121F002AFBD1704700B502461B
:1007600000F006F800BD00B5024600F00BF800BD31
:1007700072B603480068401C0149086070470000D9
:100780000000002004480068401E03490860084635
:10079000006800B962B670470000002070B50446DA
:1007A0000D460A2D03D10D212046FFF7F7FFA16862
:1007B000481CA06020684554D4E90110884202D347
:1007C000204600F022FA70BD05480068082805D1CF
:1007D0000348001D006808B9012070470020FCE7AD
:1007E0003001001005480068082805D10348001DA5
:1007F000006808B9012070470020FCE730010010B4
:1008000005480068082805D10348001D006808B99C
:10081000012070470020FCE7300100100F480068FD
:10082000082819D10D48001D006808B9012070473B
:100830000A48001D0068012800D1F8E70748001D9C
:100840000068022801D10120F1E70448001D00687A
:10085000032801D10120EAE70120E8E73001001078
:100860000F480068082819D10D48001D006808B914
:10087000012070470A48001D0068012800D1F8E7F0
:100880000748001D0068022801D10120F1E7044853
:10089000001D0068032801D10120EAE70120E8E7F4
:1008A000300100100F480068082819D10D48001DBC
:1008B000006808B9012070470A48001D0068012837
:1008C00000D1F8E70748001D0068022801D1012087
:1008D000F1E70448001D0068032801D10120EAE780
:1008E0000120E8E73001001005480068082805D11C
:1008F0000348001D006808B9012070470020FCE78C
:10090000300100102DE9FC5F83460E4691461F46DC
:10091000DDE90C45002E01DA704200E030468246E7
:100920004FF0010803E09AFBF9FA08F10108CA4503
:10093000F9DA474500D9B84634B1002E03DB05F09B
:100940000400042800D1641E05F0020000B167B164
:1009500005F0010048B944B104E0641E2021584666
:10096000FFF71CFF0CB1A045F7D3002E05DA764245
:100970002D215846FFF712FF07E005F00400042878
:1009800003D12B215846FFF709FF05F0020002288A
:100990000DD105F0010050B94FB944B104E0641E17
:1009A00030215846FFF7FAFE0CB1A045F7D33B467D
:1009B0004A4631465846CDE9004500F0FFFCBDE807
:1009C000FC9F08B50E2401252E460027B846B946DF
:1009D0000094684600F020FA824645EA460040EA64
:1009E000870040EA082040EA09410AF5E060009AE1
:1009F00040F8221000BF00BF23E00E2000906846A0
:100A000000F00AFA04460121009A01FA02F0C4F843
:100A1000080500BF00BF4FF4FA6000F0C9F80E20CF
:100A20000090684600F0F8F904460121009A01FAA6
:100A300002F0C4F80C0500BF00BF4FF4FA6000F0EC
:100A4000B7F8DAE72DE9FF4F87B0044691461E4616
:100A5000A2462546BAF806009AF805104843001F3A
:100A60000690BAF806B0301DB0FBFBF00590301DC3
:100A7000B0FBFBF10BFB11000490D9F800008119C9
:100A80000698814202D90698801B01E0D9F800003F
:100A90000746C9F8007003E02D680598401E0590D0
:100AA00005980028F8D103900498ABEB0008B845EE
:100AB00001D9384600E04046804623E00399089873
:100AC00008440290281D049908440190149828B104
:100AD0004246DDE90110FFF725FC04E04246DDE96E
:100AE0000101FFF71FFC002004902D68A7EB080709
:100AF000039840440390BB4501D9384600E058466E
:100B0000804600BF002FD9D10BB0BDE8F08F0000A8
:100B100070B503460C469CB100F094FA05460022DD
:100B20000AE0084800EB820108881E68B04202D142
:100B30001A60002070BD521CAA42F2D30520F9E7CA
:100B40000020F7E700000000F8B504460D466A46AD
:100B500029462046FFF791FB06460098F8BDF8B5F8
:100B600004460D466A4629462046FFF793FB064693
:100B70000098F8BD0246D068081A138AB0FBF3F05B
:100B8000C0B2704770B504460D462E460020FFF7F0
:100B9000E5FD31462046FFF7EDFF21680A68511C4C
:100BA0002368196010700020FFF7DDFD70BD0000A4
:100BB0002DE9F04104460CB9BDE8F08100BF4FF4C7
:100BC0007A7505B904E0054FAE013046B84700BF5D
:100BD000601E041EF3D100BFEEE70000B114000058
:100BE0000FB438B50446059810B938BC5DF814FB4D
:100BF0000020009006A800906A462046059900F063
:100C000012F80020009000BFEFE770B50446A0681E
:100C100000B970BDD4E90403A26821689847002098
:100C2000A06000BFF5E72DE9FC5F82460D46144643
:100C30000DB9BDE8FC9F00BF2E786D1C06B9E1E040
:100C4000252E70D100274FF0010900BF2E782B2EE2
:100C50000CD02D2E02D0302E0CD103E047F001072E
:100C60006D1C0AE047F002076D1C06E047F0040720
:100C70006D1C02E04FF0000900BF00BFB9F1000F8A
:100C8000E4D14FF0000800BF2A2E06D12168081DCC
:100C90002060086880446D1C0DE02E78302E01DB4A
:100CA000392E00DD07E06D1CA6F1300008EB88014D
:100CB00000EB4108E8E700BF4FF0000B2E782E2E26
:100CC00010D16D1C00BF2E78302E01DB392E00DDD7
:100CD00007E06D1CA6F130000BEB8B0100EB410B24
:100CE000F1E700BF2E7800BF6C2E01D0682E02D134
:100CF0006D1C2E7800E000E0F6E700BF692E21D0E1
:100D000008DC252E6DD0582E39D0632E0CD0642EE1
:100D10006CD116E0702E4CD0732E3ED0752E1FD0A5
:100D2000782E63D12AE065E02168081D2060D1F8A3
:100D3000009009F0FF00019050460199FFF72EFD49
:100D400055E000BF2168081D2060D1F800905B4687
:100D50000A2249465046CDE90087FFF7D3FD46E019
:100D60002168081D2060D1F800905B460A224946A0
:100D70005046CDE9008700F021FB38E000BF216834
:100D8000081D2060D1F800905B461022494650466D
:100D9000CDE9008700F012FB29E02168081D2060E2
:100DA000086801903B4642465046019900F0CAFA55
:100DB0001DE02168081D2060D1F8009030215046C8
:100DC000FFF7ECFC78215046FFF7E8FC00200821F3
:100DD0000B461022CDE900104946504600F0EEFACD
:100DE00005E025215046FFF7D9FC00E000BF00BF19
:100DF0006D1C03E031465046FFF7D0FC28780028F0
:100E00007FF41AAF00BF9AF80C0010B15046FFF7FC
:100E1000FCFE00BF0DE7000001460868202802D252
:100E20004FF0A0407047087800F01F0008600148AC
:100E3000F8E70000000300507047704738B50446DB
:100E40000D4604484023044A29460090204600F0FD
:100E500005F838BDC1120000640000202DE9F04FF4
:100E600093B082460E4617469846DDF8709030469D
:100E700000F088F918210DA8FFF76DFA0D97CDF84D
:100E80003880CDF8489000252B46082207A9304627
:100E900000F08FF9082509980A90BDF82000ADF8F8
:100EA0002C00BDF82200ADF82E0000208DF8310096
:100EB000079800F0030001281BD107984FEA902BF8
:100EC0000798C0F3C2008DF830000798C0F3831470
:100ED000A2002B4601A9304600F06BF905EB840512
:100EE0000DA80AAB224601A90090584600F0C6F8AA
:100EF00027E0079800F00300022822D107984FEA64
:100F0000905B0798C0F3C2008DF8300000BFBBF1C2
:100F1000080F01D2584600E0082004462B4622461E
:100F200005A9304600F045F92544ABEB040B0DABA9
:100F30000AAA214605A800F027F8BBF1000FE6D168
:100F400000BF304600F026F913B0BDE8F08F000076
:100F500010B502460B4C04EBC203012906D002294E
:100F600006D0032906D0042908D105E0022007E0B5
:100F7000042005E0187903E0587901E0002000BF63
:100F800000BF10BDE81500002DE9F05F07460E46D2
:100F900090461D46082E01D9BDE8F09F95F80C90AB
:100FA000002028732946404600F038F900240CE060
:100FB000B44205D23A5D1DA12846FFF711FE03E0B9
:100FC0001CA12846FFF70CFE641C082CF0D31AA1C4
:100FD0002846FFF705FE00241DE0B44216D217F89C
:100FE00004A0BAF17E0F09DCFFF798F9006810F849
:100FF0000A0000F03E0008B1504600E02E20834673
:101000005A460EA12846FFF7EBFD03E00CA1284647
:10101000FFF7E6FD641C082CDFD301222946404679
:1010200000F0D8F885F80C9000BFB5E720253032E5
:1010300078000000202020007C00000025630000D4
:101040002000000002480349401AC0087047000011
:10105000F0150000E815000013B50C46214668465F
:10106000FFF756FD28B90448009A00EBC201086852
:101070001CBD0020FCE70000E81500002DE9FF473B
:1010800007460C46164698460C9D95F80C90002095
:1010900028732946404600F0C1F8072E47D2DFE802
:1010A00006F004090F161F2A370039462846FFF7B5
:1010B00097FD3DE0394628462268FFF791FD37E06D
:1010C00039462846D4E90023FFF78AFD30E0A068BE
:1010D000009039462846D4E90023FFF781FD27E038
:1010E000D4E90201CDE9000139462846D4E90023BC
:1010F000FFF776FD1CE0D4E902122069CDE9001269
:10110000029039462846D4E90023FFF769FD0FE035
:10111000D4E90223D4E90410CDE90023CDE902107B
:1011200039462846D4E90023FFF75AFD00E000BF06
:1011300000BF00222946404600F04CF885F80C908C
:10114000BDE8FF872DE9F05F0446274697F8058044
:101150002646A8F1010B002501E036686D1C5D45AF
:10116000FBD3D6F800A02646002507E0D6F800906D
:1011700031465046FFF706FD4E466D1C4545F5D3FA
:10118000BDE8F09F70B5044625460121281DFFF7F4
:10119000DBFC70BDF8B5044626460121301DFFF783
:1011A000DEFC00906D46287810B92046FFF7CAFF94
:1011B000F8BD2DE9FC4105460E4614461F46019434
:1011C00001203B4601AA314600902846FFF73AFC31
:1011D000BDE8FC8170B504460D461646207A052808
:1011E0000CD0607A28B10A480AA102682846FFF7A5
:1011F000F7FC09A12846FFF7F3FC04E01EB106A1A5
:101200002846FFF7EDFC2846FFF7FFFC70BD000005
:1012100034000020257300000D0A0000F8B50446D4
:101220000D46E08838B116A00090E38816A218A1F8
:101230002846FFF7D5FC207A05281FD0607A58B1E0
:10124000217AA088FFF784FE174951F820603246C2
:1012500016A12846FFF7C4FC2846216800F0ACF828
:10126000A0880021FFF7F8FE0646207A104951F8C1
:10127000202033460FA12846FFF7B2FCF8BD00003E
:101280001B5B306D000000001B5B313B33316D0098
:1012900025734C6F67732064726F707065642028CB
:1012A00025642925730D0A003400002025730000F1
:1012B000200000203C25733E2025733A20000000CA
:1012C0002DE9F84F88461546002D35D04FF000091E
:1012D0000320009000BF08EB09012A460020FFF719
:1012E0005FF80446A1442D1BFCB91448007800B9EE
:1012F00020E0012606B90FE000BF4FF47A7707B966
:1013000006E0DFF83CA04FEA871B5846D04700BFF5
:10131000701E061EF1D100BF0098401E009000987C
:1013200018B900200549087004E00120034908703D
:10133000002DD0D100BF00BFBDE8F88F0400002011
:10134000A11400002DE9F04781460C461546984649
:10135000002608F00100A0B105E0641C761C3946A7
:101360004846FFF71BFA2778002FF6D104E06D1EE0
:1013700020214846FFF712FAB5421BD9002DF6D1BD
:1013800018E01CB12046FEF7F1FF064604E06D1E92
:1013900020214846FFF702FAB54201D9002DF6D1C7
:1013A00005E0641C761C39464846FFF7F7F92778B4
:1013B000002FF6D1BDE8F087704700002DE9FF4F00
:1013C00081B0884616461F46DDE90E4B45464FF074
:1013D000010A03E0B5FBF6F50AF1010AB542F9D2BC
:1013E000574500D9BA460BF0010098B994B10BF0FB
:1013F0000200022803D117B93020009001E020201C
:10140000009004E0641EDDE90010FFF7C7F90CB19D
:10141000A245F7D3012509E0012F01D97F1E04E081
:10142000B8FBF5F9B14500D201E07543F4E700BF20
:1014300000BFB8FBF5F909FB15880D4810F8091035
:101440000198FFF7ABF9B5FBF6F5002DF1D10BF0E4
:10145000010048B144B104E0641E20210198FFF767
:101460009DF90CB1A245F7D305B0BDE8F08F00009F
:101470007414000030313233343536373839414254
:10148000434445460000000000000000000000004A
:101490003D0E00003B0E0000390E00000000000071
:1014A0000338FDD870470000000000000000000075
:1014B0000338FDD870470040404040404040404025
:1014C0004141414141404040404040404040404017
:1014D0004040404040404005020202020202020237
:1014E00002020202020202202020202020202020CE
:1014F000200202020202020290909090909010103E
:1015000010101010101010101010101010101010DB
:10151000101002020202020288888888888808085F
:10152000080808080808080808080808080808083B
:101530000808020202024000B71400007761726ED0
:10154000696E670064656275670000001B5B313B74
:1015500033306D001B5B306D000000001B5B313BC6
:1015600033316D001B5B313B33326D001B5B313B14
:1015700033336D001B5B313B33346D001B5B313B00
:1015800033356D001B5B313B33366D001B5B313BEC
:1015900033376D00696E666F000000006572726F10
:1015A000720000007274745F6C6F675F6261636BDE
:1015B000656E640061707000041600000000002079
:1015C000640000003E070000681600006400002070
:1015D000442800004E0700009014000000000000A6
:1015E000A415000008000020B4150000000003034B
:1015F000180000201000002018000020A400002087
:1016000018000000000000000000000000000000C2
:10161000FF000000000000000000000000000000CB
:1016200000000000000000009C1500003C150000B8
:101630009415000044150000541500004C150000DE
:101640005C150000641500006C15000074150000A6
:101650007C150000841500008C15000000000000BF
:08166000000000000090D0031F
:0400000500000201F4
:00000001FF
