:020000040002F8
:1070000090530020C1730200C9730200CB730200C9
:10701000CD730200CF730200D173020000000000A4
:10702000000000000000000000000000D373020018
:10703000D573020000000000D7730200D97302006C
:1070400095760200DB73020049790200DB730200CF
:10705000DB730200DB73020069740200DB73020061
:10706000DB730200DB730200DB730200DB730200E0
:10707000DB730200DB730200DB730200DB730200D0
:10708000DB730200E9760200DB730200DB730200AF
:10709000DB730200DB73020001770200DB73020086
:1070A000DB730200DB730200DB730200DB730200A0
:1070B000DB730200DB730200000000000000000030
:1070C000DB730200DB730200DB730200DB73020080
:1070D000DB730200DB730200DB730200DB73020070
:1070E000DB730200DB730200DB73020000000000B0
:1070F00000000000DB73020000000000DB730200F0
:10710000000000000000000000000000000000007F
:10711000000000000000000000000000000000006F
:10712000000000000000000000000000000000005F
:10713000000000000000000000000000000000004F
:10714000000000000000000000000000000000003F
:10715000000000000000000000000000000000002F
:10716000000000000000000000000000000000001F
:10717000000000000000000000000000000000000F
:1071800000000000000000000000000000000000FF
:1071900000000000000000000000000000000000EF
:1071A00000000000000000000000000000000000DF
:1071B00000000000000000000000000000000000CF
:1071C00000000000000000000000000000000000BF
:1071D00000000000000000000000000000000000AF
:1071E000000000000000000000000000000000009F
:1071F000000000000000000000000000000000008F
:10720000DFF80CD000F01EF900480047C1850200ED
:107210009053002030B4044654E8000F0D4644E873
:107220000053002BF8D1156030BC704730B40446D1
:1072300054E8000F40EA010544E80053002BF7D161
:10724000156030BC704730B4044654E8000F00EAC3
:10725000010544E80053002BF7D1156030BC70479E
:1072600030B4044654E8000F80EA010544E80053B6
:10727000002BF7D1156030BC704730B4044654E899
:10728000000F00EB010544E80053002BF7D1156017
:1072900030BC704730B4044654E8000FA0EB010541
:1072A00044E80053002BF7D1156030BC704770B430
:1072B00004464FF0000054E8006F0D68AE4207BF6F
:1072C00044E80023012044E800630E60002B1CBF4B
:1072D0000020F0E770BC704730B4044654E8000F5B
:1072E00088422CBF451A054644E80053002BF5D1CF
:1072F000156030BC7047000030B450E8012F93B2E5
:10730000C48923448489A34228BF1B1B0489A34248
:1073100002BFBFF32F8F002007E0C3EA020340E85B
:107320000134002CE9D14FF001000A6030BC7047F5
:1073300050E8012FC2EA024240E801210029F7D1BA
:10734000704730B450E8022F1FFAA2F3C488A3425A
:1073500002BFBFF32F8F00200DE0C489234484892E
:10736000A34228BF1B1BC2EA034340E80234002C9F
:10737000E8D14FF001000A6030BC704750E8022F9E
:10738000C2EA224240E802210029F7D170470346B1
:1073900053E8022FD988B2EB324F4FF0000017BFED
:1073A00092B241EA014142EA014104E05A68B2EB7B
:1073B000324F08BF012043E80212002AE8D170478B
:1073C0000648804706480047FEE7FEE7FEE7FEE77F
:1073D000FEE7FEE7FEE7FEE7FEE7FEE719770200BD
:1073E000017202000048704748AE020040EA010303
:1073F0009B0703D009E008C9121F08C0042AFAD26B
:1074000003E011F8013B00F8013B521EF9D270472E
:10741000D2B201E000F8012B491EFBD270470022D6
:10742000F6E710B513460A4604461946FFF7F0FF83
:10743000204610BD421C10F8011B0029FBD1801A08
:1074400070470000064C074D06E0E06840F001037D
:1074500094E8070098471034AC42F6D3FFF7D4FE07
:1074600058AF020078AF02002DE9F04F8DB0002731
:1074700000200B900C904FF480700A90012600249D
:1074800012E00A9801F096FD40B100BF7E48006806
:10749000304018B10A9801F07FFD374376000A9812
:1074A000001D80B20A90641C082CEAD34FF4BE7011
:1074B00001F080FD50B14FF4BE7001F06DFD47F05A
:1074C00000470BAA0221002001F04AFDF8B200B3E8
:1074D000012600241BE006EA0700B0B100BF6B489C
:1074E00050F82400C0F30520804600BF674850F8DC
:1074F0002400C0F301408146204600F0B3FC05465D
:1075000015B149464046A84700BF7600641C082CC8
:10751000E1D307F0004000287DD04FF0000B0020A1
:1075200008900990002505E04FF0FF3006A941F8CA
:1075300025006D1C022DF7D300BF4FF0000B002477
:1075400063E05348005D0590059820F0C00004906A
:107550004F480057401C002856D006A9049801F057
:1075600027FA002850D005984FEA9019049800F0A7
:1075700081FC804600F076FC0390039810B9B9F1C5
:10758000030F40D1B9F1030F03D108A9049801F00A
:107590001AFA0498029002A801F098FC0190019850
:1075A00000F5E060029950F82100C0F3014800BFE7
:1075B0000BA9049801F0FCF98246BAF1000F02D041
:1075C000B8F1020F05D0BAF1000F1BD1B8F1030FCB
:1075D00018D1B9F1030F0FD1B8F1020F01D1032077
:1075E00000E0022002900299049801F042FC0BF1A5
:1075F000010000F0FF0B00BF039818B14946DDE918
:107600000320904700BF00BF641C042C99D3BBF13A
:10761000000F31D000E034E04FF0010804AA02214D
:10762000002001F09DFC00250BE004A850F8250087
:107630000BA951F82510884202D04FF0000802E053
:107640006D1C022DF1D300BFB8F1000F02D04FF036
:10765000000B10E000250CE004A850F825000BA951
:1076600041F8250008A850F8250006A941F8250092
:107670006D1C022DF0D300BFBBF1000F7FF45DAF96
:1076800000BF0DB0BDE8F08F0463004010650040FE
:107690002C2D002010B54FF4807001F09FF980B1BF
:1076A0004FF4807001F0A3F9012001F0A9F90D4811
:1076B000407930B901200B49487108460168002023
:1076C00088474FF4827001F089F950B14FF482700D
:1076D00001F08DF9022001F093F9024801680120C0
:1076E000884710BDF02A002010B5034A1068034AED
:1076F0001168884710BD0000402B00203C2B002063
:1077000010B502F00BF910BD01480249086070473E
:107710000090D003BC2B002010B500F0A7FC40B1B6
:107720000020794908604FF08041C1F81001774985
:10773000086000F0BDFC002855D075480068754908
:1077400008607348001D0068091D08607048083013
:107750000068091D08606E480C300068091D08604B
:107760006B4810300068091D0860694814300068D3
:10777000091D0860664818300068664920310860B5
:1077800063481C300068091D0860614820300068AB
:10779000091D08605E4824300068091D08605C48C7
:1077A00028300068091D086059482C300068091D00
:1077B00008605748303000685649403108605448E6
:1077C00034300068091D0860514838300068091DD0
:1077D00008604F483C300068091D08604C48403044
:1077E0000068091D086000F085FC10B14A484B494B
:1077F000086000F0EFFB10B1FB204949086000F081
:10780000F7FB38B1474801784748006861F3030047
:107810004549086000F0FAFB18B14FF40070434985
:10782000086000F001FC40B14148006800F0010030
:1078300018B16FF001003E4908603E48006840F40E
:1078400070003C49086000BF00BF00BFBFF34F8F0E
:1078500000BF00BF00BF00BF00BF00BFBFF36F8FFE
:1078600000BF00BF00BF3448006800F0004030B9DE
:107870003148001D006800F00040002840D0012081
:107880002E49086000BF2E4800680028FBD0122057
:107890002949086000BF2A4800680028FBD012214F
:1078A0002548001D016000BF254800680028FBD066
:1078B00000202249086000BF214800680028FBD052
:1078C00000BF00BF00BF00BF00BFBFF34F8F00BFAE
:1078D00000BF00BF17487C38006800F4E060194919
:1078E0000843001D13497C39086000BF00BF00BF7A
:1078F000BFF34F8F00BF00BF00BF00BF00BFFDE759
:10790000FFF702FF10BD00000C01004038050040E9
:107910000404001020C50040488103008C5600403C
:1079200018F5004058020010E40E00404096024056
:107930000004004088ED00E00012001004E5014062
:1079400000E401400000FA0510B5024908688047CC
:1079500010BD0000F82A002002E008C8121F08C16C
:10796000002AFAD170477047002001E001C1121FC0
:10797000002AFBD1704700BFEFF31081084672B6B2
:107980007047000072B600BF01F062FE00BF00BF8A
:1079900001F022FC0028FBD100BF00BF1D491E4A98
:1079A000891AC908012242EA01401CA101F0A0FD88
:1079B00000BF1D48006800F0010000B100BE00BF1C
:1079C0001449154A891AC908022242EA014017A13E
:1079D00001F08EFD00BF00BF00BF00BF00BFBFF3BE
:1079E0004F8F00BF00BF00BF0F48E438006800F4AD
:1079F000E06012490843001D0B49E439086000BFEC
:107A000000BF00BFBFF34F8F00BF00BF00BF00BF6C
:107A100000BFFDE7E0AF020088AF0200466174617D
:107A20006C206572726F7200F0ED00E05379737430
:107A3000656D207265736574000000000000FA0532
:107A40003EB50446002000900190029002946A46E0
:107A5000002144F20100FFF795FF3EBD2DE9F04102
:107A600006460D4617463446207F10B10020BDE87B
:107A7000F081A76100F05CFB401941F10001C4E90D
:107A80000201206900B125612146002002F040FE7C
:107A9000EDE770B5044625460020287729460120E9
:107AA00002F036FE70BD10B50446204602F0CAFC56
:107AB00010BD000070B5044625460E488068B0B180
:107AC000ADB9FFF758FF06460A4800680A49086042
:107AD000084840684FF0E021C1F804010020054942
:107AE00088601EB900BF62B600BF00BF00BF00BF04
:107AF00070BD00005C2D002000E100E070B505467F
:107B00000C462068401C28B1206801F00FFA20685C
:107B100001F097F96068401C18B10021606801F01D
:107B200076F92868A169C0F8241500BF617D227D1F
:107B3000286841EA0203C0F86C3500BFD4E900129E
:107B4000286801F09AFF207D012814D1A068401C0C
:107B500018B10021A06801F05AF9E068401C28B172
:107B6000E06801F0E3F9E06801F06BF9D4E9022183
:107B7000286801F06AFF70BD70B505460C462068A4
:107B8000401C28B1206801F0DEF9206801F065F999
:107B90006068401C18B10021606801F045F9286850
:107BA000A169C0F8241500BF617D227D286841EAE3
:107BB0000203C0F86C3500BFD4E90012286801F058
:107BC00096FF207D012814D1A068401C18B1002127
:107BD000A06801F029F9E068401C28B1E06801F0D4
:107BE000B2F9E06801F039F9D4E90221286801F01E
:107BF0005FFF70BD002114E00C48D0F81024012371
:107C000008E000BFD0680079884201D1002303E07A
:107C1000D0680268002AF4D100BF0BB10846704753
:107C2000491C0A29E8DB4FF0FF30F8E7682F0020F5
:107C300070B504460D462088102806D0112808D0BB
:107C400012280ED0502810D107E0204602F0EEF99D
:107C50000CE0204602F022FA08E0204602F038FA52
:107C600004E0204602F0CAF900E000BF00BF70BD8A
:107C70002DE9F04104460F46A6882088102806D03A
:107C8000112817D019283DD01A2848D116E002F043
:107C90006FFB304602F048FB20B900BF0420FFF71D
:107CA000CFFE06E0E07B012803D031461D4800F0FE
:107CB000B3FD34E0304602F07FFB30E0207A050966
:107CC000042D01DB012000E000200246314615486A
:107CD0000C3000F01DFA032D01DB012000E0002034
:107CE000024631460F48083000F012FA022D01DB3F
:107CF000012000E00020024631460A48001D00F045
:107D000007FA0CE0207A48B9607AC0F3C0052A4629
:107D1000314604480C3000F0FBF900BF00BF00BF43
:107D2000BDE8F0811C2C002070B50446204602F00E
:107D30000FFF054605F0010070BD00002DE9FC476E
:107D400004460D461646A71C4FF00108002001907E
:107D500001A8FFF7A8FE3048006828602E48006898
:107D60002D494968411A2C488068401CA0EB010944
:107D700015E00121294800F06CFD00F0BDFB8246B2
:107D80005146264800F065FD2348006822494968AD
:107D9000411A21488068401CA0EB010900BF4F45F3
:107DA000E7D8B8F1000F30D00021009176B10099EA
:107DB00021F00301491C0091009921F00401091DE3
:107DC0000091009964F3891100910DE0009921F070
:107DD0000301891C0091009921F00401091D009103
:107DE000009964F39F5100910B4909680A4A92680F
:107DF0001140094A0C3202EB8100009901600649EA
:107E0000096839440C3A116000BF9DF80400FFF77F
:107E100051FE4046BDE8FC87682F002084330020D7
:107E200070B504460D460A2D03D10D212046FFF7FB
:107E3000F7FFA168481CA06020684554D4E90110F0
:107E4000884202D3204600F090FE70BD044840688E
:107E500003490968884201D1012070470020FCE7EE
:107E6000682F00200146024850F8210070470000AA
:107E7000CC2C00200146014840567047FC2C0020C5
:107E800070B505460DB9094C01E0084C083409E00D
:107E9000204600F00DFB064606B904E0284671684E
:107EA000884700BFF4E700BF70BD0000C02C002071
:107EB00010B504462CB90120064948700020FFF790
:107EC000DFFF012C04D1012002498870FFF7D8FFA1
:107ED00010BD0000B82C00202DE9F04702461346E3
:107EE0008C46D3E90245DCE90267B6EB040877EB80
:107EF000050002D30120BDE8F0870020FBE733B581
:107F00008BB00546002000900C9878B100240BE05F
:107F100021460CA800F071FC28B1009A501C00907A
:107F200001A820F81240641C142CF1D32C226946BD
:107F30002846FFF75BFA0DB030BD0000F8B50546E6
:107F40000C46607A88B9207A10B91048476801E079
:107F50000E4887682A4639466068FFF77FFD064667
:107F600016B1304602F0D6FA0EE000202072074823
:107F7000406948B101208DF80000ADF80250034877
:107F800041696846884700BFF8BD0000F42B002017
:107F900010B50021034800F07DFC044684F3100076
:107FA00010BD00008433002010B50446206801F0A5
:107FB00079FC10BD10B5014691F9040000F01F03D3
:107FC00001229A40024B440943F8242000BF10BD0F
:107FD00000E200E005480068082805D10348001DBC
:107FE000006808B9012070470020FCE7300100104C
:107FF00005480068082805D10348001D006808B935
:10800000012070470020FCE730010010054800689F
:10801000082805D10348001D006808B901207047F1
:108020000020FCE7300100100F480068082819D133
:108030000D48001D006808B9012070470A48001D5E
:108040000068012800D1F8E70748001D00680228F1
:1080500001D10120F1E70448001D0068032801D187
:108060000120EAE70120E8E7300100100F4800682E
:10807000082819D10D48001D006808B90120704773
:108080000A48001D0068012800D1F8E70748001DD4
:108090000068022801D10120F1E70448001D0068B2
:1080A000032801D10120EAE70120E8E730010010B0
:1080B0000F480068082819D10D48001D006808B94C
:1080C000012070470A48001D0068012800D1F8E728
:1080D0000748001D0068022801D10120F1E704488B
:1080E000001D0068032801D10120EAE70120E8E72C
:1080F0003001001005480068082805D10348001D1C
:10810000006808B9012070470020FCE7300100102A
:1081100070B505460E46144624B13146284600F097
:108120007BFB03E03146284600F058FB70BD0000A1
:1081300070B50B48FFF738FF0A4B0CCB841843F19E
:108140000005094903C9201A75EB010004D24FF05C
:108150008073E41845F100052046294670BD0000F3
:10816000182B0020282B0020302B002010B501F008
:1081700033F810BD024600210CE001EB8100074BF3
:1081800033F82000904204D101EB810003EB800022
:108190007047491C0029F0D00020F9E7E02B0020AF
:1081A0002DE9FC5F83460E4691461F46DDE90C45EE
:1081B000002E01DA704200E0304682464FF001089E
:1081C00003E09AFBF9FA08F10108CA45F9DA4745D4
:1081D00000D9B84634B1002E03DB05F004000428B2
:1081E00000D1641E05F0020000B167B105F0010086
:1081F00048B944B104E0641E20215846FFF710FE40
:108200000CB1A045F7D3002E05DA76422D21584651
:10821000FFF706FE07E005F00400042803D12B2138
:108220005846FFF7FDFD05F0020002280DD105F0CC
:10823000010050B94FB944B104E0641E30215846E2
:10824000FFF7EEFD0CB1A045F7D33B464A46314659
:108250005846CDE9004502F081FCBDE8FC9F0000D6
:1082600070B505460949286801F0F5FB286801F05A
:1082700075FC0446204600F01F0201219140044A8B
:10828000430942F8231000BF00BF70BD8402020002
:1082900080E100E070B505460949286801F00EFC50
:1082A000286801F05FFC0446204600F01F0201210F
:1082B0009140044A430942F8231000BF00BF70BD3B
:1082C0001003420080E100E02DE9F04104460E4633
:1082D0004FF48E71206801F0B1FB4FF4A271206859
:1082E00001F0ACFB1749206801F0B8FB206801F0F1
:1082F00035FC0546374628463946002809DA4A073C
:108300004FEA126C104A00F00F031B1F02F803C063
:1083100003E04A07130E0D4A135400BF00BF206844
:1083200001F01CFC0546284600F01F020121914087
:108330004209920002F1E022C2F8001100BF00BF22
:10834000BDE8F0818000020018ED00E000E400E0EC
:108350002DE9F04104460E464FF48871206801F083
:10836000A0FB4FF49071206801F09BFB4FF49271D9
:10837000206801F096FB4FF4A271206801F091FB98
:108380004FF4AC71206801F08CFB1849206801F0B3
:1083900098FB206801F0E6FB05463746284639463B
:1083A000002809DA4A074FEA126C114A00F00F035D
:1083B0001B1F02F803C003E04A07130E0D4A1354B3
:1083C00000BF00BF206801F0CDFB0546284600F045
:1083D0001F02012191404209920002F1E022C2F8FD
:1083E000001100BF00BFBDE8F08100001003420093
:1083F00018ED00E000E400E030B5024600201378FC
:10840000C3F38003D3B1137803F00303012B02D02D
:10841000022B10D107E01388C3F383139B1C0C6855
:1084200023440B6008E00B680225146805EB9454A4
:1084300023440B6000E000BF00BF012030BD2DE9E8
:10844000F0410446A08800EB020CB4F8048090458B
:1084500001DD104600E0A088A8EB0005E088C61802
:10846000B4F80680984501DD184600E0E088A8EBE6
:1084700000074888B4F80080404504DB4888B4F819
:108480000280404502DD0020BDE8F0818888A842D6
:1084900002D38888604501D90020F5E7C888B84232
:1084A00002D3C888B04201D90020EDE70120EBE7F4
:1084B0000146086808B102680A60704710B501F00B
:1084C00039FB00200149887010BD0000B82C002045
:1084D00070B54FF48041002001F072F8044600BFEF
:1084E000254625B100BF2846FFF7AAFA00BF00BF06
:1084F00000F05EFE70BD00002DE9FF4100272E4810
:1085000000F0A0F92C48001F00F09CF92B484068AF
:1085100003902A4885680398284028490C3101EBCC
:10852000800800BF03A94046FFF766FF30B10398FB
:10853000284022490C3101EB800800E000E0F1E71F
:1085400000BF00240AE00398411C284003911B4906
:108550000C3151F820004DF82400641C022CF2D399
:10856000009800F0030001280DD0022814D1BDF8B6
:1085700006700421009801EB9050401E039901EB16
:108580009000039009E0BDF806700098C0F38310D6
:1085900003990844039000E000BF00BF0648001F95
:1085A00000F049F9064616B1044903984860384678
:1085B00004B0BDE8F081000080330020682F002067
:1085C00008B5FFF785FF0F2401252E460027B84682
:1085D000B9460094684600F099FC824645EA460098
:1085E00040EA870040EA082040EA09410AF5E060D5
:1085F000009A40F8221000BF00BF2FE01849194A26
:10860000891AC908032242EA014017A100F070FF4D
:108610000F200090684600F079FC04460121009A82
:1086200001FA02F0C4F8080500BF00BF4FF4FA6079
:1086300000F0F0F90F200090684600F067FC044657
:108640000121009A01FA02F0C4F80C0500BF00BF36
:108650004FF4FA6000F0DEF9FFF788FDCEE7000086
:10866000E0AF020088AF0200424C452054656D70B7
:108670006C617465206578616D706C653A4C6F67EC
:10868000207573652075617274206173206F757435
:10869000707574207465726D696E616C0000000005
:1086A0002DE9FF4F87B0044691461E46A246254657
:1086B000BAF806009AF805104843001F0690BAF869
:1086C00006B0301DB0FBFBF00590301DB0FBFBF198
:1086D0000BFB11000490D9F8000081190698814223
:1086E00002D90698801B01E0D9F800000746C9F8B6
:1086F000007003E02D680598401E0590059800283D
:10870000F8D103900498ABEB0008B84501D938467E
:1087100000E04046804623E0039908980844029010
:10872000281D049908440190149828B14246DDE9B7
:108730000110FEF75BFE04E04246DDE90101FEF7B1
:1087400055FE002004902D68A7EB080703984044CD
:108750000390BB4501D9384600E05846804600BF2B
:10876000002FD9D10BB0BDE8F08F000070B50346E3
:108770000C469CB100F050FF054600220AE0084874
:1087800000EB820108881E68B04202D11A60002006
:1087900070BD521CAA42F2D30520F9E70020F7E78A
:1087A0000000000070B504460D4629462046FEF73D
:1087B000A3FD18B12A882168881870BD0020FCE745
:1087C00070B505460C4620886188884204D1284649
:1087D000FEF7AEFD012070BD0020FCE770B5054638
:1087E0000C4604F01F0301229A40D143620905EBB5
:1087F000820000F039F8064670BD10B502464809FF
:1088000052F8200001F01F040123A340184008B1D2
:10881000012010BD0020FCE770B505460C4604F0B1
:108820001F03012202FA03F1620905EB820000F046
:108830003CF8064670BD10B504460021204600F005
:108840001EF810BD10B504460121204600F02DF899
:1088500010BDF8B504460D466A4629462046FEF787
:108860000CFD06460098F8BDF8B504460D466A466C
:1088700029462046FEF7E7FC06460098F8BDF8B505
:1088800004460D466A4629462046FEF7DCFC0646AD
:108890003046F8BDF8B504460D466A4629462046DE
:1088A000FEF7B8FC06463046F8BDF8B504460D465E
:1088B0006A4629462046FEF7B9FC06460098F8BDF0
:1088C000F8B504460D466A4629462046FEF7E2FC06
:1088D00006460098F8BDF8B5044600260020009032
:1088E0006846FFF7E0F8206800686168884215D99B
:1088F00020680068401E226810600178204600F061
:1089000033F80646207A21680978401AC5B22068F3
:108910000079A84201DA2068057100BF9DF80000C7
:10892000FFF7C8F83046F8BD0246D068081A138A27
:10893000B0FBF3F0C0B27047F8B504460D462E46C2
:10894000002000906846FFF7AEF831462046FFF75A
:10895000EBFF21680A68511C2368196010709DF8AC
:108960000000FFF7A7F8F8BD0246138AD06801FBA4
:108970000300704710B5014600BF09B90E2010BDB5
:1089800000BF087A0B79C01AC2B2D1E90030186072
:1089900005E008680368581C0C6820601A70101EF7
:1089A000A2F10103DAB2F4D10B68187100BFE6E757
:1089B00030B502460B46D40802F007020120904071
:1089C0001D5D284030BD30B50B46C20800F00700E1
:1089D0009C5C012585402C439C5430BD01464FF0E2
:1089E0008040405808B1012070470020FCE708B5DE
:1089F00000224FF080410A500958009100BF08BD85
:108A000001490860704700000803004001229107F7
:108A10000A5070472DE9F04104460CB9BDE8F081D9
:108A200000BF4FF47A7505B904E0054FAE0130463A
:108A3000B84700BF601E041EF3D100BFEEE7000080
:108A4000C1AD020010B500240C48007808B185249F
:108A500011E000200949886048600861C860084842
:108A600001F056F8044600F071FF08B901F046F82D
:108A7000012002490870204610BD0000B82C0020DB
:108A8000B17E020008B5002000906846FFF70BF8A1
:108A90000748C068401E0649C8600846C06808B953
:108AA000FFF70CFD9DF80000FFF704F808BD00007B
:108AB000B82C00202DE9F04188B004460F46154639
:108AC00026781A4840F826501949386941F8260096
:108AD000787F18498855202239466846FEF786FC7B
:108AE00004964FF0000820781249085C50B10DB18F
:108AF000114800E0002002466946201D01F096F969
:108B000080460EE020780B49085C50B90DB10B4847
:108B100000E000200246694604F10C0001F0BEF8B6
:108B20008046404608B0BDE8F0810000002B0020E0
:108B3000082B0020102B0020E5A90200F1A702005D
:108B40000FB438B50446059810B938BC5DF814FB6D
:108B50000020009006A800906A462046059900F083
:108B600012F80020009000BFEFE770B50446A0683F
:108B700000B970BDD4E90403A268216898470020B9
:108B8000A06000BFF5E72DE9FC5F82460D46144664
:108B90000DB9BDE8FC9F00BF2E786D1C06B9E1E061
:108BA000252E70D100274FF0010900BF2E782B2E03
:108BB0000CD02D2E02D0302E0CD103E047F001074F
:108BC0006D1C0AE047F002076D1C06E047F0040741
:108BD0006D1C02E04FF0000900BF00BFB9F1000FAB
:108BE000E4D14FF0000800BF2A2E06D12168081DED
:108BF0002060086880446D1C0DE02E78302E01DB6B
:108C0000392E00DD07E06D1CA6F1300008EB88016D
:108C100000EB4108E8E700BF4FF0000B2E782E2E46
:108C200010D16D1C00BF2E78302E01DB392E00DDF7
:108C300007E06D1CA6F130000BEB8B0100EB410B44
:108C4000F1E700BF2E7800BF6C2E01D0682E02D154
:108C50006D1C2E7800E000E0F6E700BF692E21D001
:108C600008DC252E6DD0582E39D0632E0CD0642E02
:108C70006CD116E0702E4CD0732E3ED0752E1FD0C6
:108C8000782E63D12AE065E02168081D2060D1F8C4
:108C9000009009F0FF00019050460199FFF7C0F8DD
:108CA00055E000BF2168081D2060D1F800905B46A8
:108CB0000A2249465046CDE90087FFF771FA46E09F
:108CC0002168081D2060D1F800905B460A224946C1
:108CD0005046CDE9008701F041FF38E000BF216830
:108CE000081D2060D1F800905B461022494650468E
:108CF000CDE9008701F032FF29E02168081D2060DE
:108D0000086801903B4642465046019901F0C6FC76
:108D10001DE02168081D2060D1F8009030215046E8
:108D2000FFF77EF878215046FFF77AF800200821F7
:108D30000B461022CDE900104946504601F00EFFC7
:108D400005E025215046FFF76BF800E000BF00BFAB
:108D50006D1C03E031465046FFF762F82878002882
:108D60007FF41AAF00BF9AF80C0010B15046FFF71D
:108D7000FCFE00BF0DE72DE9FF470C4615461E46D9
:108D8000DDE90C78684600F091F8814644EA450038
:108D900040EA860040EA072040EA084109F5E06021
:108DA000009A40F82210BDE8FF872DE9FF470C46E6
:108DB00015461E46DDE90C78684600F097F88146B6
:108DC00044EA450040EA860040EA072040EA0841BC
:108DD00009F5E060009A40F82210BDE8FF871CB555
:108DE00004460020009003460122014601902046DF
:108DF000FFF7C1FF1CBD1CB50446002000900346D0
:108E00000122014601902046FFF7CFFF1CBD7CB533
:108E100005460C460020009023460246014601907C
:108E20002846FFF7A8FF7CBD7CB505460C46002010
:108E3000009023460246014601902846FFF7B5FF01
:108E40007CBD1CB50446002000900346012211465B
:108E500001902046FFF78FFF1CBD1CB50446002083
:108E6000009003460122114601902046FFF79DFF26
:108E70001CBD73B50D46684600F028F8044604F59D
:108E8000E060009950F8210020F4403104F5E060E2
:108E9000009A40F82210009950F8210040EA05415C
:108EA00004F5E060009A40F822107CBD0146086895
:108EB000202802D24FF0A0407047087800F01F0031
:108EC00008600148F8E70000000300500146086808
:108ED000202802D24FF0A0407047087800F01F0011
:108EE00008600148F8E700000003005001460868E8
:108EF000202802D24FF0A0407047087800F01F00F1
:108F000008600148F8E700000003005001460868C7
:108F1000202802D24FF0A0407047087800F01F00D0
:108F200008600148F8E700000003005031B56846CA
:108F3000FFF7BCFF04460121009A01FA02F0C4F8D1
:108F4000080500BF38BD31B56846FFF7CFFF0446BE
:108F50000121009A01FA02F0C4F8080500BF38BDEB
:108F60003CB50B46084D30CDCDE90045014606E045
:108F70005DF82140D4F810551560121D491CC41825
:108F80008C42F5D83CBD000044AC020001460148CB
:108F9000084470470060004038B504462046FFF79B
:108FA000F5FF002101602046FFF7F0FF0068009008
:108FB00000BF38BD10B504462046FFF7E7FF006844
:108FC000012800D110BD0020FCE7000070B5044668
:108FD0000E46FEF70FFE0546681C08B9284670BD10
:108FE000E8B2E168087100BF0C48D0F8100430B94D
:108FF0000A48C0F810440020E16808600BE0074808
:10900000D0F81004C0680068E16808600348D0F830
:109010001004C06804602846E1E70000682F0020C3
:109020002DE9F04F93B082460E4617469846DDF87C
:109030007090304600F0E9FB18210DA8FEF7EFF91B
:109040000D97CDF83880CDF8489000252B460822A2
:1090500007A9304600F0F6FB082509980A90BDF8EC
:109060002000ADF82C00BDF82200ADF82E00002045
:109070008DF83100079800F0030001281BD10798F4
:109080004FEA902B0798C0F3C2008DF83000079884
:10909000C0F38314A2002B4601A9304600F0D2FB96
:1090A00005EB84050DA80AAB224601A9009058469D
:1090B00000F0EAFA27E0079800F00300022822D126
:1090C00007984FEA905B0798C0F3C2008DF8300014
:1090D00000BFBBF1080F01D2584600E0082004464B
:1090E0002B46224605A9304600F0ACFB2544ABEBED
:1090F000040B0DAB0AAA214605A800F003FABBF148
:10910000000FE6D100BF304600F08DFB13B0BDE884
:10911000F08F704710B50124204601F08BFB10BD85
:1091200070B505460A4C20780A49085C18B1201D24
:1091300000F02CFF07E020780649085C18B904F11C
:109140000C0000F047FE00BF002001F073FB70BD73
:10915000482B0020102B002038B504460D4604484B
:109160004023044A294600902046FFF759FF38BDA6
:109170002DA50200D02D002010B502460B4C04EBAB
:10918000C203012906D0022906D0032906D00429EA
:1091900008D105E0022007E0042005E0187903E08B
:1091A000587901E0002000BF00BF10BD88AF020069
:1091B00010B54FF0FF34FFF7ADFF04210548FFF76E
:1091C00005FF044600BF01200249C968487100BF7D
:1091D00010BD000078AF02002DE9F04F8BB0FEF714
:1091E00035FE18B100200BB0BDE8F08F0020B74964
:1091F000C1F8180400BF00BF00BFBFF34F8F00BF0E
:1092000000BF00BF084640680A90084684680A9874
:1092100020400C3101EB800A00250026002006903A
:1092200000BF0AA95046FFF7E7F8A8B1A748D0F851
:10923000180488B9A54800680A99884205D8A34847
:109240000068A24948600020CDE70A9820409F4965
:109250000C3101EB800A00E000E0E2E700BF0027EC
:109260000BE00A98411C20400A9198490C3151F8B2
:10927000200007A941F827007F1C022FF1D307988F
:1092800000F0030002287CD10798800D0590502142
:109290000798B1EB905F02DD0798800D00E0502049
:1092A0008146079869F39F50079009F108000490E0
:1092B0000798C0F3C20006908548049900F048FA68
:1092C0000546002D5BD0284600F09FFA3346082261
:1092D00007A9284600F0C7FA08360A982040611C02
:1092E000081A4FEA8008C14535D9B8F1000F06D0F9
:1092F0000A98204075490C3101EB800001E0734869
:109300000C300390B8F1000F01D0404600E0484611
:1093100000F0FF0BB8F1000F02D06C480C3000E0F9
:1093200000200290B8F1000F02D0A9EB080000E085
:109330000020C0B2019033465A462846039900F0F7
:1093400092FA5E44029828B133462846DDE90121AD
:1093500000F089FA0CE00A9820405C490C3101EBDE
:10936000800B33464A465946284600F07CFA00BF37
:109370000598C01C0A9901EB90000A9000BF44E0D8
:10938000FFE7079800F0030001283ED10798C0F3DB
:109390008310062803DA0798C0F3831000E0062044
:1093A000079960F3891107910798C0F3831000F1C2
:1093B00002080798C0F3C20006904FEA88014448AB
:1093C00000F0C6F90546FDB1284600F01EFA334606
:1093D000082207A9284600F046FA083600270EE0C2
:1093E0000A98421C20400A92384A0C3202EB800153
:1093F00033460422284600F036FA361D7F1C0798B3
:10940000C0F38310B842EBD800BFE5B32F48D0F8C3
:109410001084D0F8180418B1284600F004FA31E09E
:1094200019E04FF0000900BFD8F80C00407901287E
:1094300000D18146B9F1000F08D000BFD8F8000074
:10944000294602684046904700BF00BFD8F80C008C
:10945000D0F8008000BFB8F1000FE2D1284600F03C
:10946000E2F90020059005A8FEF71DFB1748D0F88B
:10947000180410B915490A9848609DF81400FEF7C1
:1094800019FB00BF1DE0FFE71048D0F810840AE088
:10949000C146D9F8000081684846884700BFD8F81F
:1094A0000C00D0F80080B8F1000FF1D109490A4A48
:1094B000891AC908022242EA014008A100F018F8FE
:1094C00000BFFEF7C3FC80F001008CE6682F00208F
:1094D00000B00200E0AF020088AF02004261636B9F
:1094E000656E647320666C757368656400000000C7
:1094F00070B504460D4600231A462946204601F061
:1095000095F870BD2DE9F05F07460E4690461D4662
:10951000082E01D9BDE8F09F95F80C900020287323
:109520002946404600F0A2FE00240CE0B44205D2D9
:109530003A5D1DA12846FFF703FB03E01CA1284666
:10954000FFF7FEFA641C082CF0D31AA12846FFF797
:10955000F7FA00241DE0B44216D217F804A0BAF1BD
:109560007E0F09DCFDF73EFF006810F80A0000F0EE
:109570003E0008B1504600E02E2083465A460EA118
:109580002846FFF7DDFA03E00CA12846FFF7D8FADA
:10959000641C082CDFD301222946404600F042FE1D
:1095A00085F80C9000BFB5E7202530327800000028
:1095B000202020007C000000256300002000000027
:1095C0002DE9F04106460F4600BFFF200D49886097
:1095D000002008604860C1F81804C1F8140481F83C
:1095E0002004094800F019F9044614B12046BDE8EA
:1095F000F081064800F048F905480649401AC508B8
:109600000020F4E7682F002000B0020008AD02003F
:1096100000B0020088AF020002480349401AC008A7
:109620007047000000B0020088AF020013B50C467E
:1096300021466846FFF79AF828B90448009A00EBDB
:10964000C20108681CBD0020FCE7000088AF0200D2
:1096500070B50C48D0F8104401200A4981F8200464
:109660000CE000BF0120E168487100BF2546286872
:1096700041682846884700BFE0680468002CF0D1A4
:1096800070BD0000682F00202DE9FF4707460C46FB
:10969000164698460C9D95F80C9000202873294694
:1096A000404600F0E3FD072E47D2DFE806F004094C
:1096B0000F161F2A370039462846FFF741FA3DE0CA
:1096C000394628462268FFF73BFA37E039462846F4
:1096D000D4E90023FFF734FA30E0A068009039465F
:1096E0002846D4E90023FFF72BFA27E0D4E902014A
:1096F000CDE9000139462846D4E90023FFF720FAD6
:109700001CE0D4E902122069CDE90012029039462A
:109710002846D4E90023FFF713FA0FE0D4E9022327
:10972000D4E90410CDE90023CDE9021039462846DA
:10973000D4E90023FFF704FA00E000BF00BF0022D5
:109740002946404600F06EFD85F80C90BDE8FF8785
:109750002DE9F84F07468A46388AA0F104080AF135
:1097600004004044401EB0FBF8F0C0B20090384600
:10977000FFF7B1F8044614B90020BDE8F88F0020C7
:10978000207101216171A4F8068025460098A0F19E
:10979000010B2C462F604FF0000912E03846FFF70E
:1097A0009AF8064636B16079401C60712E603760C9
:1097B000354604E0204600F008F80020DDE709F116
:1097C0000109D945EAD32046D7E72DE9F05F0446E1
:1097D000274697F805802646A8F1010B002501E0F1
:1097E00036686D1C5D45FBD3D6F800A026460025E3
:1097F00007E0D6F8009031465046FFF79DF84E46F8
:109800006D1C4545F5D3BDE8F09F70B5044625466F
:109810000121281DFFF71DF870BD10B50446204634
:10982000FFF7A8F810BDF8B5044626460121301D03
:10983000FFF746F800906D46287810B92046FFF7EC
:10984000C4FFF8BD2DE9FC4105460E4614461F46EF
:10985000019401203B4601AA314600902846FEF7BC
:109860001FFFBDE8FC812DE9FC4105460E4614466C
:109870001F46019400203B4601AA3146009028462D
:10988000FEF70EFFBDE8FC810021826891608268CE
:109890001161826851618268D1608268516082681A
:1098A000116070470146D1F8040570472DE9F04179
:1098B00092B080461748007810B912B0BDE8F08128
:1098C0001CE03420049004A905A861DF044604B11B
:1098D00015E005AD104901A800F06BF809E000BFE4
:1098E00003980646376828467168B84701A800F013
:1098F00081F800BF03980028F1D100BFE1E700BF65
:10990000052C04D000BF2046FEF79AF800BF00BF28
:10991000D3E70000BB2B00208CAD02003EB50A4906
:10992000684600F046F809E0684600F03FF8044653
:1099300025686068A847684600F05CF8684600F053
:1099400035F80028F0D13EBD5CAD0200014800783A
:1099500070470000B82B00202DE9FF41074618E0B2
:1099600003A84BDF044604B114E00F49684600F039
:1099700020F809E000BF029805462E686968039840
:10998000B047684600F036F800BF02980028F1D1D1
:1099900000BFE5E700BF052C04D000BF2046FEF75E
:1099A0004FF800BFBDE8FF81ACAD020001468868FA
:1099B000704770B504460D462560286860602046F3
:1099C00000F001F870BD14E0D0E900215268914226
:1099D00002D100218160704741680968426852687D
:1099E000914203D0416809688160F4E74168083119
:1099F0004160E9E710B50446A06800B910BD2168D0
:109A0000A06889680844A060D4E9011049688842C8
:109A100005D16068083060602046FFF7D4FF00BFC2
:109A2000ECE70146D1F88004C1F880047047024693
:109A3000505808B1012070470020FCE708B500220B
:109A400042504258009200BF08BDC0F808154FF4BC
:109A5000A2631A507047C0F808137047C0F8041387
:109A600070470246D2F80403084008B1012070474D
:109A70000020FCE701224250704740F214531A5074
:109A800040F20C53195070470146D1F88004C1F8D8
:109A9000800470470246505808B1012070470020EA
:109AA000FCE708B5002242504258009200BF08BDB2
:109AB000C0F808154FF4A2631A507047C0F8081395
:109AC0007047C0F804137047014640F23C504058BC
:109AD0007047D0F800228A43C0F800227047012264
:109AE00042507047014640F24C504058704740F297
:109AF0000C53195040F214531A50704710B500F02F
:109B00003FF801200149086000BF10BD1805004062
:109B100001460020064A12790AB1852006E0044A6F
:109B200011600122024B1A7100225A717047000025
:109B3000F02A002010B50C20FEF768FF00BF00BF20
:109B400003480068C0F300400028F8D110BD0000B1
:109B5000180400400146080B40B270470146080B4C
:109B600040B270470146080B40B27047014601F011
:109B70006040B0F1005F01D1012070470020FCE798
:109B80002DE9F04106254FF08040FFF7E3FF044642
:109B90002046E21704EBD2625211920002F1E02259
:109BA000D2F800212146E31704EBD3635B11A4EB49
:109BB00043160123B3401A400AB1012200E00022FB
:109BC00052BB4FF08040FFF7C5FF04462E462046AB
:109BD0003146002807DA4A07170E104A00F00F0333
:109BE0001B1FD75403E04A07130E0D4A135400BF3E
:109BF00000BF4FF08040FFF7ADFF0446204600F065
:109C00001F02012191404209920002F1E022C2F8B4
:109C1000001100BF00BF00BFBDE8F08118ED00E0FB
:109C200000E400E02DE9F84307460E46384600F010
:109C30006FFB0446D4B14FF0000800200090684646
:109C4000FDF731FF207910B14FF0010802E02660E6
:109C5000012020719DF80000FDF72CFFB8F1000FE6
:109C600003D011252846BDE8F88300BF002528460B
:109C7000F9E770B50546284600F04AFB044614B1E2
:109C800000202060207170BD10B50249024800F02C
:109C900001FE10BD8C2C0020002000402DE9F04179
:109CA00005460E461746287900EB400101EBC0003F
:109CB0001A4901EB80044FF0000894F82A0020B103
:109CC0004FF008084046BDE8F0812A79144B53F85C
:109CD00022102868FFF7A6FF18B14FF01108404680
:109CE000F1E731462846FDF709FF676030692060DB
:109CF000606818B1317F2846FEF7E6FA286804212B
:109D0000C0F8001500BF0020A061E06184F82900C0
:109D10006061012084F82A004046D4E78C2C0020A2
:109D200024AC02002DE9F04104460F46904620790C
:109D300000EB400101EBC0001C4901EB800520460F
:109D400000F036F818B111263046BDE8F081C5F8AC
:109D50001480AF600020286285F8280000264FF4A8
:109D60008E712068FFF76AFE08212068FFF782FEE7
:109D70002946206800F008FD6868A0B929462068D7
:109D800000F0E7FC08B90F260BE000BF4FF48E711E
:109D90002068FFF74CFE0028F8D00C212068FFF760
:109DA00069FE002068613046CFE700008C2C00205F
:109DB0000146087900EB400202EBC000044A02EBC6
:109DC0008000406908B1012070470020FCE70000D6
:109DD0008C2C002070B50446207900EB400101EB8B
:109DE000C0000C4901EB800520680021C0F8001577
:109DF00000BF686810B12046FEF732FA204600F036
:109E000093F92068FFF735FF002085F82A00686085
:109E100070BD00008C2C002010B50249024800F0F3
:109E2000FDFD10BD382D0020002000402DE9F0413F
:109E300005460E461746287900EBC000194901EB8C
:109E400080044FF0000894F8200020B14FF008087B
:109E50004046BDE8F0812A79134B53F82210286858
:109E6000FFF7E0FE18B14FF011084046F1E7314628
:109E70002846FDF781FE676030692060606818B190
:109E8000317F2846FEF764FA28680821C0F80015DB
:109E900000BF0020A061E0616061012084F8200023
:109EA0004046D6E7382D002098AC02002DE9F04757
:109EB000044688469146207900EBC0002A4901EB10
:109EC00080054046FFF752FE18B910263046BDE81F
:109ED000F087204600F04AF810B111263046F6E728
:109EE000C5F81490C5F8088000264FF490712068DA
:109EF000FFF7D7FD4FF4AC712068FFF7D2FD206863
:109F00006A69A968C0F844154FF4A9631A5000BFE4
:109F100008212068FFF7E3FD686818BB00BF4FF415
:109F200090712068FFF7B6FD82464FF4AC7120684F
:109F3000FFF7B0FD0746BAF1000F01D1002FEED0B8
:109F40000FB10F260BE00C212068FFF7C8FD00BF02
:109F50004FF4AC712068FFF79DFD0028F8D0002079
:109F6000686100BF3046B2E7382D0020014608790D
:109F700000EBC000044A02EB8000406908B10120F8
:109F800070470020FCE70000382D002070B5044623
:109F9000207900EBC000184901EB8005686810B11A
:109FA0002046FEF777F920212068FFF792FD042173
:109FB0002068FFF794FD4FF4AC712068FFF771FD46
:109FC0000C212068FFF78BFD00BF4FF4AC712068B7
:109FD000FFF760FD0028F8D020680021C0F80015C8
:109FE00000BF204600F0DFF82068FFF742FE0020A7
:109FF00085F82000686070BD382D002070B50546DA
:10A00000AE883046FEF7B6F8044674B14FF6FF73DB
:10A0100040F2F31205F1080104F10A00FEF70FFA0D
:10A02000607221463046FDF789FF70BD2DE9F04191
:10A030000546EF7BAE88012F01D0BDE8F0814FF6D9
:10A04000FF70FEF797F804461CB9042000F062FA8E
:10A05000F3E700BF2680002020720E480168C4F894
:10A060000A104068C4F80E0000BF4FF6FF7340F2BC
:10A07000F31205F1100104F10A00FEF7E0F9607235
:10A080000548C08918B921463046FDF757FF00BF83
:10A09000D3E70000E82A0020F42B00202DE9F0414E
:10A0A0000646B7883846FEF765F805466DB168681C
:10A0B000FDF7EFFC044614B1204600F02BFA00BF78
:10A0C0004FF6FF70288000BF00BFBDE8F0810000A0
:10A0D0002DE9F0410446A51D28881249C989884206
:10A0E0001DD1688902281AD1B4F804804046FEF7D1
:10A0F00041F8064696B105F10C00FDF715FE20B1BA
:10A1000031464046FDF71AFF08E07068FDF7C1FCD4
:10A11000074617B1384600F0FDF900BF00BFBDE8A3
:10A12000F0810000F42B00202DE9F0470446206860
:10A1300040F20C5109580D46206840F2145109585C
:10A140000E462068D0F808150F4620684FF4A2612B
:10A1500009588846D4F800904FF0FF32114648461F
:10A16000FFF78BFC00BFD4F800904FF0FF32114690
:10A170004846FFF76AFC00BF681C10B12846FEF78E
:10A180002EFE701C10B13046FEF729FE08F10100CA
:10A1900010B14046FEF723FE781C10B13846FEF79A
:10A1A0001EFEBDE8F0872DE9F0470446206840F226
:10A1B0000C5109580D46206840F2145109580E46BA
:10A1C0002068D0F808150F4620684FF4A26109589E
:10A1D0008846D4F800904FF0FF3211464846FFF70A
:10A1E00086FC00BFD4F800904FF0FF32114648467D
:10A1F000FFF75EFC00BF681C10B12846FEF7FBFDB0
:10A20000701C10B13046FEF7F6FD08F1010010B1E8
:10A210004046FEF7F0FD781C10B13846FEF7EBFD26
:10A22000BDE8F08770B504460D461646207A05282D
:10A230000CD0607A28B10A480AA102682846FEF7C5
:10A240007FFC09A12846FEF77BFC04E01EB106A1B5
:10A250002846FEF775FC2846FEF787FC70BD000017
:10A260008C2B0020257300000D0A0000F8B5044671
:10A270000D46E08838B116A00090E38816A218A118
:10A280002846FEF75DFC207A05281FD0607A58B179
:10A29000217AA088FEF770FF174951F820603246F6
:10A2A00016A12846FEF74CFC2846216800F050FA1B
:10A2B000A0880021FFF7BAF90646207A104951F824
:10A2C000202033460FA12846FEF73AFCF8BD0000D7
:10A2D0001B5B306D000000001B5B313B33316D00B8
:10A2E00025734C6F67732064726F707065642028EB
:10A2F00025642925730D0A008C2B0020257300008E
:10A30000782B00203C25733E2025733A2000000066
:10A3100001460348814201D1024870470020FCE712
:10A3200000200040F82A002010B50446142C01DB60
:10A33000002010BD21460548FEF76EFA214603486D
:10A34000001FFEF769FA0120F3E70000182C002037
:10A3500070B50546002406E0044901EB8400294657
:10A36000FEF73CFA641C1E2CF6D370BD142C0020A2
:10A3700010B598B00F488068C04317900D484168E9
:10A3800017A8FEF771FA179901A8FDF7B8FD2C225E
:10A3900001A90CA8FDF72AF8002405E00DA931F861
:10A3A0001400FFF7D5FF641C0C98A042F6D818B033
:10A3B00010BD0000102C002010B5044621460248B4
:10A3C000FEF70CFA10BD0000182C002070B50546F1
:10A3D0000C46A06940B94FF484712846FFF72EFB64
:10A3E00000BFD5F8180570BD4FF484712846FFF7FB
:10A3F00025FB00BFD5F81805C0B2626AE168885431
:10A40000606A401C606200BFEDE77FB504460D4600
:10A41000164601208DF80000029501966846D4E9A1
:10A42000001290477FBD7FB504460D4616460120B9
:10A430008DF80000029501966846D4E90012904715
:10A440007FBD000070B50446FDF795FA0546144837
:10A450008068D8B901201249886012480068124902
:10A4600008400F49086010484FF0E021C1F8800112
:10A470000C488038D0F88400094948604FF0FF311B
:10A480000848001D01600020207001E001202070BC
:10A490001DB900BF62B600BF00BF002070BD000044
:10A4A0005C2D002080E100E0FC06FFBD38B50446CD
:10A4B0000D4624B1012C0BD0032C24D11EE000202A
:10A4C00001218140114A430942F8231000BF1BE0DB
:10A4D000002000906846FDF7E6FA0D48007808B9BC
:10A4E000FEF7B0FA0A48C068401C0949C86001205C
:10A4F00088709DF80000FDF7DDFA05E0FFF7FEFA31
:10A50000FEF7C0FA00E000BF00BF38BD80E100E008
:10A51000B82C002010B504460348806918B10248E1
:10A5200081692046884710BDF42B00202DE9F05F9B
:10A530000E46174607F0FF0A002018490870184C0D
:10A54000B046D146834620781649085C30B14A4669
:10A550004146201DFFF7AAFC83460AE020781149F6
:10A56000085C30B94A46414604F10C00FFF7DAFBBB
:10A5700083465D4600BF00BF2C4624B100BF204685
:10A58000FDF75EFA00BF00BF00BF0748007818B1B2
:10A59000024800780028F8D0BDE8F09F5C2B00202E
:10A5A000482B0020102B00205D2B002070B50446A6
:10A5B0000D462CB90120034948700020FDF760FCCE
:10A5C00070BD0000B82C00202DE9F05F05460E4656
:10A5D00090461F46DDF828904FEA154AFDF7D8FC53
:10A5E00083464AEA0B42781C00EA09000E4941F80A
:10A5F000202007EA090001EB8004206865F3C5000C
:10A600002060206868F389102060206866F39F202E
:10A610002060206820F00300401C2060206820F0AB
:10A6200004002060BDE8F09F742F00202DE9FC4756
:10A630008046894616461C4617488768012201A9AC
:10A640002046FDF77BFBC8B1019800F1020A002506
:10A650000AE056F8252050460AF1010A38400E4912
:10A660000C3141F820206D1CA542F2D30097224600
:10A6700049464046019BFFF7A7FF00BF064890F8F8
:10A68000200430B100BF00BFFEF7A6FD0028FBD1BB
:10A6900000BFBDE8FC870000682F00202DE9F047CF
:10A6A00081460C4615469846002608F00100A0B1E8
:10A6B00005E0641C761C39464846FDF7B1FB277857
:10A6C000002FF6D104E06D1E20214846FDF7A8FBBF
:10A6D000B5421BD9002DF6D118E01CB12046FCF77D
:10A6E000A9FE064604E06D1E20214846FDF798FBB2
:10A6F000B54201D9002DF6D105E0641C761C39461F
:10A700004846FDF78DFB2778002FF6D1BDE8F0878E
:10A71000F8B505460E4669460B480068FEF742F854
:10A7200004467CB125706660694607480068FEF7FC
:10A7300047F828B100BF0548FDF73CFC00BF00BF4B
:10A740000020F8BD0420FCE7C8AC0200182B002054
:10A75000704770B505460C46666910E004E094F851
:10A76000280008B1002070BD4FF48E712846FFF715
:10A770005EF90028F3D02146284600F005F8206A4B
:10A78000B042EBD30120EEE770B505460C464FF41E
:10A790008E712846FFF752F9216AA068465C206A4C
:10A7A000401C20623046C5F81C0500BF70BD7FB557
:10A7B00004460D4600208DF800000295A068019027
:10A7C000002060616846D4E9001290477FBD7FB5E4
:10A7D00004460D4600208DF800000295A068019007
:10A7E000002060616846D4E9001290477FBD0000F8
:10A7F0007FB504460D462E4620788DF8000060682F
:10A800000190217A8DF80810E1680391044850F80E
:10A810002610044850F82620684690477FBD000067
:10A82000082B0020002B00200122014B1A707047DA
:10A830005C2B002070B588B005462022114968467F
:10A84000FCF7D4FD06200090C01F019002900390F9
:10A850004FF0EB7006900DB10B4800E0002002466F
:10A8600069460A48FEF726F9044600BF264626B187
:10A8700000BF3046FDF7E4F800BF00BF0448057094
:10A8800008B070BDE8AC020029A80200482B0020E7
:10A890005D2B00202DE9FF4105460C464FF4007169
:10A8A0002846FFF7DEF848B34FF492712846FFF7C9
:10A8B000BEF818B34FF492712846FFF7BFF84FF473
:10A8C00001712846FFF7C7F894F8290018B9042148
:10A8D0002846FFF7CFF802208DF800002846FFF742
:10A8E000A0F80390A1690291E06801900020A061A6
:10A8F000E0616846D4E90012904737E00421284619
:10A90000FFF7AFF8002831D04FF484712846FFF7E5
:10A910008EF858B321462846FFF758FD616AA069B2
:10A92000884223D1E06970B1E668676AE069A06196
:10A930002069E0600020E0616062324639462046CE
:10A94000FFF763FD12E094F8290018B904212846A6
:10A95000FFF790F84FF401712846FFF77CF80020CC
:10A96000A061E268616A2046FFF74FFD4FF48E71E7
:10A970002846FFF75CF8B8B16669206AB04207D292
:10A9800094F8280020B921462846FFF7FDFE0AE08A
:10A990004FF48E712846FFF751F8606918B161696C
:10A9A0002046FFF704FF00BF4FF4A2712846FFF7CF
:10A9B0003EF8A0B14FF4A2712846FFF73FF894F893
:10A9C000290018B100212846FFF754F8A06930B1DA
:10A9D0000020A061E268616A2046FFF716FDBDE82D
:10A9E000FF8100007FB504460D462E4620788DF885
:10A9F000000060680190217A8DF80810E1680391E9
:10AA0000044850F82610044850F82620684690471D
:10AA10007FBD0000082B0020002B00202DE9FF4106
:10AA200006460C464FF492713046FFF733F8C8B132
:10AA30004FF492713046FFF734F802208DF8000091
:10AA40003046FFF721F803903046FFF73DF80290BB
:10AA5000E06801900020A061E0616846D4E900123E
:10AA600090472CE04FF488713046FFF713F830B36D
:10AA70004FF488713046FFF714F83046FFF724F89A
:10AA80000546A069A84219D1E06980B1E768202194
:10AA90003046FFF71EF8E069A0612069E060002001
:10AAA000E0613A4629462046FFF7BDFC06E000205B
:10AAB000A06129462046E268FFF7B5FC00BF4FF4CD
:10AAC000A2713046FEF7E6FF90B14FF4A271304616
:10AAD000FEF7E7FFA06958B10020A061E0613046B1
:10AAE000FEF7F2FF054629462046E268FFF79BFC89
:10AAF0004FF490713046FEF7CDFF90B14FF4907156
:10AB00003046FEF7CEFF0C213046FEF7E8FF6069C5
:10AB100038B13046FEF7E6FF054629462046FFF7E6
:10AB200056FE4FF4AC713046FEF7B4FF70B14FF4EF
:10AB3000AC713046FEF7B5FF606938B13046FEF7BC
:10AB4000D1FF054629462046FFF741FEBDE8FF81BB
:10AB5000014608784A7840EA022070472DE9FF4F05
:10AB600081B0884616461F46DDE90E4B45464FF03C
:10AB7000010A03E0B5FBF6F50AF1010AB542F9D284
:10AB8000574500D9BA460BF0010098B994B10BF0C3
:10AB90000200022803D117B93020009001E02020E4
:10ABA000009004E0641EDDE90010FDF739F90CB1F6
:10ABB000A245F7D3012509E0012F01D97F1E04E04A
:10ABC000B8FBF5F9B14500D201E07543F4E700BFE9
:10ABD00000BFB8FBF5F909FB15880D4810F80910FE
:10ABE0000198FDF71DF9B5FBF6F5002DF1D10BF03D
:10ABF000010048B144B104E0641E20210198FDF732
:10AC00000FF90CB1A245F7D305B0BDE8F08F0000F5
:10AC1000B8AC02006E7266785F756172745F696EBF
:10AC200069740000899C02006E7266785F756172BB
:10AC3000745F7478006E7266785F756172745F72AB
:10AC40007800000000000050000300506E7266782B
:10AC50005F6770696F74655F696E6974006E7266B4
:10AC6000785F6770696F74655F6F75745F696E692F
:10AC700074006E7266785F6770696F74655F696E85
:10AC80005F696E69740000006E7266785F7561724C
:10AC900074655F696E697400199E02006E72667851
:10ACA0005F75617274655F7478006E7266785F7547
:10ACB000617274655F727800303132333435363703
:10ACC0003839414243444546C02D00200000000071
:10ACD000382B0020D97E02000100060059910200A5
:10ACE0002191020013910200FFFFFFFFFFFFFFFF12
:10ACF000FFFFFFFFFFFFFFFF00000000000000005C
:10AD00000000D60106010000D02E00207F000000C8
:10AD1000502F002000000000000000000000000094
:10AD20000000000014AD020024AD02000800000085
:10AD30003CB0020044B0020000000000000000002F
:10AD400030AD020040AD0200080000002CB002004F
:10AD50003CB0020000000000000000004CAD02000A
:10AD60005CAD0200080000000100000714B0020002
:10AD70001CB002001CB0020024B002000000000061
:10AD80000000000000000000000000006CAD0200A8
:10AD90008CAD020008000000E82A002024B0020068
:10ADA0002CB0020000000000000000009CAD02007A
:10ADB000ACAD020008000000000000000000000030
:10ADC0000338FDD87047004040404040404040407C
:10ADD000414141414140404040404040404040406E
:10ADE000404040404040400502020202020202028E
:10ADF0000202020202020220202020202020202025
:10AE00002002020202020202909090909090101094
:10AE10001010101010101010101010101010101032
:10AE200010100202020202028888888888880808B6
:10AE30000808080808080808080808080808080892
:10AE40000808020202024000C7AD02007761726E7C
:10AE5000696E670064656275670000001B5B313BCB
:10AE600033306D001B5B306D000000001B5B313B1D
:10AE700033316D001B5B313B33326D001B5B313B6B
:10AE800033336D001B5B313B33346D001B5B313B57
:10AE900033356D001B5B313B33366D001B5B313B43
:10AEA00033376D00696E666F000000006572726F67
:10AEB000720000006E72665F626C655F6761747439
:10AEC00000000000434C4F434B00000055415254DA
:10AED00000000000636C6F636B0000004750494F37
:10AEE0005445000050525300554152544500000053
:10AEF0006170705F627574746F6E00006170705F76
:10AF000074696D65720000007077725F6D676D74B3
:10AF100000000000736F72746C69737400000000AD
:10AF2000756172745F6C6F675F6261636B656E649D
:10AF300000000000617070006E72665F73646800EC
:10AF40006E72665F7364685F626C65006E72665FE6
:10AF50007364685F736F630044B00200E82A0020E6
:10AF6000D8000000587902001CB10200C02B00205C
:10AF7000D027000068790200DCAC0200000000006D
:10AF800020AF0200602B0020B4AE020000000303DB
:10AF9000C4AE020000000000CCAE020000000000C1
:10AFA000D4AE020000000000DCAE02000000000091
:10AFB000E4AE020000000000E8AE02000000000065
:10AFC000F0AE020000000000FCAE02000000000035
:10AFD00008AF02000000000014AF020000000000F3
:10AFE00034AF02000000030338AF02000000030387
:10AFF00040AF0200000003034CAF02000000030357
:10B00000702B0020682B0020702B0020102E0020B9
:10B0100018000000717C020000000000317C02007A
:10B0200000000000ADA5020000000000AD98020085
:10B03000000000005999020000000000ADA40200C9
:10B040000000000000000000000000000000000000
:10B0500000000000000000000000000000000000F0
:10B0600000000000000000000000000000000000E0
:10B07000000000000010014011000400000000006A
:10B0800000000000000000000000000000000000C0
:10B0900000000000000000000000000000000000B0
:10B0A0000000000000000000002000400000000040
:10B0B0000020004000000000000000000000000030
:10B0C000FF00000000000000000000000000000081
:10B0D0000000000000000000ACAE02004CAE020018
:10B0E000A4AE020054AE020064AE02005CAE0200E8
:10B0F0006CAE020074AE02007CAE020084AE0200B0
:10B100008CAE020094AE02009CAE02000000000073
:0CB1100000000000000000000090D003D0
:040000050002720182
:00000001FF
